S00F00006869642D696D752E7372656368
S11300000C9446010C9463010C9463010C946301F9
S11300100C9463010C9463010C9463010C946301CC
S11300200C9463010C9463010C94D4060C94630146
S11300300C9463010C9463010C9463010C946301AC
S11300400C9463010C9463010C9463010C9463019C
S11300500C9463010C9463010C9463010C9463018C
S11300600C9463010C9463010C9463010C9463017C
S11300700C9463010C9463010C9463010C9463016C
S11300800C9463010C9463010C9463010C9463015C
S11300900C9463010C9463010C9463010C9463014C
S11300A00C9463010C9463010C946301CA07EC077C
S11300B0DA08EC07DA0831085408DA08A908BC0899
S11300C02C034C0055004600410020004700650009
S11300D06E0065007200690063002000480049005A
S11300E044002000440065006D006F000000180308
S11300F04400650061006E002000430061006D0053
S11301006500720061000000040309040902220072
S1130110010100C0320904000001030000000921AC
S113012011010001224B010705810308000512019A
S1130130100100000008EB034F2001000102000140
S113014005200973A10005200A090315002502757D
S1130150089501A1020A30080A31080A3208B100E0
S1130160C00A16031500250575089501A1020A4069
S1130170080A41080A42080A43080A44080A4508CA
S1130180B100C00A19031500250575089501A102DF
S11301900A50080A51080A52080A53080A54080A5D
S11301A05508B100C00A010215002506750895011D
S11301B0A1020A00080A01080A02080A03080A043C
S11301C0080A05080A0608B100C00A0E031500272C
S11301D0FFFFFFFF752095015500B1020A52141567
S11301E00026FFFF75109501550EB1020A52241620
S11301F0018026FF7F75109501550EB1020A523415
S113020016018026FF7F75109501550EB102052059
S11302100A01021500250675089501A1020A0008C5
S11302200A01080A02080A03080A04080A05080A57
S113023006088100C00A020215002505750895010B
S1130240A1020A10080A11080A12080A13080A145B
S1130250080A15088100C00A530416018026FF7F8E
S113026075109501550E81020A540416018026FF6B
S11302707F75109501550E81020A550416018026DA
S1130280FF7F75109501550E8102C00011241FBE19
S1130290CFEFDAE0DEBFCDBF11E0A0E0B1E0E6E6EB
S11302A0F2E102C005900D92A031B107D9F721E027
S11302B0A0E1B1E001C01D92AB32B207E1F70E94A8
S11302C0C8010C9431090C940000292F33272330E2
S11302D03105E1F05CF42130310599F0223031052B
S11302E079F582E290E02CE031E02EC02132310534
S11302F011F12232310521F58BE491E020E431E063
S113030023C082E190E02EE231E01EC099278130C3
S1130310910541F08230910541F0892B89F4E8E0A0
S1130320F1E005C0EEEEF0E002C0E0ECF0E0849114
S113033090E09F0109C089E090E02EE131E004C023
S113034080E090E020E030E0FA01318320830895DA
S11303509BB19F7B892B8BB9089584B7877F84BF1A
S11303600FB6F894A895809160008861809360002E
S1130370109260000FBE90E080E80FB6F89480936E
S11303806100909361000FBE569A5E980C94B60675
S11303900E94AD0180E40E94A801789480E091E07D
S11303A00E948C030E94F308F9CF80E00C94A8010A
S11303B080E40C94A80180E091E00E94780390917D
S11303C0E20094609093E200811102C080E401C0D5
S11303D080E00C94A80180E091E00C9437028091B5
S11303E00E0190910F01009729F0019790930F014E
S11303F080930E0108950F931F93F901D8014111C1
S113040013C082E0808384E0818382E390E093835D
S1130410828384E690E0958384838EEC9FEF9783B8
S1130420868388E090E01CC04230E1F4408341833D
S11304304283438341E050E060E070E044835583AD
S11304406683778381E090E0918780878FEF9FE7D1
S11304509387828781E090E8958784878EE090E097
S11304608D939C9380E01F910F91089508956F924E
S11304707F928F929F92AF92BF92CF92DF92EF9230
S1130480FF920F931F93CF93DF9300D01F92CDB7AA
S1130490DEB77C01CDB6DEB68091E80083FF11C1E2
S11304A0F701808190E020912701309128012817DD
S11304B0390709F006C180912401833009F4A5C0ED
S11304C030F4813071F0823009F4DEC0FAC08A3031
S11304D009F4C1C08B3009F4A9C0893009F0F1C016
S11304E055C080912301813A09F0EBC08DB69EB6C8
S11304F01A82198280912501109126018B83F701BC
S11305008085482F50E08DB79EB7841B950B0FB69E
S1130510F8949EBF0FBE8DBFEDB7FEB731965F0155
S113052060E070E0CF010E942A094FEF410F8E0175
S11305300F5F1F4F9501BE016D5F7F4FC7010E9482
S1130540FB01F70186819781009729F0408550E0EF
S1130550B5010E9421091092E9008091E800877F8B
S11305608093E8008B8181118093F10069817A8105
S1130570C5010E94A0048091E8008B778093E80075
S11305800FB6F8949EBE0FBE8DBE9BC08091230112
S1130590813209F096C0ADB6BEB600912901109122
S11305A02A0170902501609026018DB79EB7801BAB
S11305B0910B0FB6F8949EBF0FBE8DBFEDB7FEB77B
S11305C031964F018091E800877F8093E800B8015D
S11305D0CF010E9403058091E8008E778093E800A4
S11305E021E0711001C020E030E0021B130B280D44
S11305F0391D4FEF460D672DC7010E9436020FB615
S1130600F894BEBE0FBEADBE5CC080912301813A9A
S113061009F057C08091E800877F8093E8008091BB
S1130620E80080FFFCCFF701818542C0809123015F
S1130630813209F046C08091E800877F8093E8000A
S11306400E9422069091250181E0911101C080E071
S1130650F701818736C080912301813291F5809121
S1130660E800877F8093E8000E942206809125019C
S113067090912601882736E0969587953A95E1F77B
S1130680F701958784871DC080912301813AC9F4BD
S11306908091E800877F8093E8008091E80080FFE4
S11306A0FCCFF701848595859695879596958795D2
S11306B08093F1008091E8008E778093E8000E9497
S11306C022060FB6F894DEBE0FBECDBE0F900F907B
S11306D00F90DF91CF911F910F91FF90EF90DF90DA
S11306E0CF90BF90AF909F908F907F906F90089520
S11306F0FC01399627E0DF011D922A95E9F721E0F4
S1130700FC01218724EF31E03587248723E024830B
S113071061E001960C94D9054F925F926F927F929B
S11307208F929F92AF92BF92CF92DF92EF92FF92FD
S11307300F931F93CF93DF9300D01F92CDB7DEB7F3
S11307407C01ADB6BEB680912201843009F092C01E
S11307508091E4009091E500F70122853385281704
S1130760390709F487C081818F708093E9008091F3
S1130770E80085FF7FC08DB69EB6408550E08DB7FA
S11307809EB7841B950B0FB6F8949EBF0FBE8DBF0A
S1130790EDB7FEB731966F011B821A82198260E0B1
S11307A070E0CF010E942A098E010F5F1F4F96014E
S11307B040E0BE016D5F7F4FC7010E94FB01482EE0
S11307C0F70184859585892B51F091E080E0268599
S11307D03785232B09F090E0092F182F02C000E081
S11307E010E0F701668077806114710499F0498103
S11307F05A81B301C6010E94140955245394892BCC
S113080009F4512CF701408550E0B601C3010E9460
S1130810210901C0512C89819A81892BF9F0411059
S113082004C0511002C0012BC9F0F70184859585DD
S11308309787868781818F708093E9008B818111EE
S11308408093F10069817A8140E050E0C6010E9402
S113085053048091E8008E778093E8008091E4004F
S11308609091E500F701938782870FB6F8949EBEB6
S11308700FBE8DBE0FB6F894BEBE0FBEADBE0F90B8
S11308800F900F90DF91CF911F910F91FF90EF90F8
S1130890DF90CF90BF90AF909F908F907F906F909C
S11308A05F904F900895CF92DF92EF92FF920F9353
S11308B01F93CF93DF93EC018B017A010E944106D1
S11308C0811135C0E114F10439F0F701808191817F
S11308D0081B190BC80FD91FC12CD12C01151105E8
S11308E029F18091E80085FD18C08091E8008E7799
S11308F08093E8000E94F308E114F10449F0F70141
S113090080819181C80ED91ED182C08285E00FC03A
S11309100E944106882311F30AC089918093F10053
S113092001501109FFEFCF1ADF0AD8CF80E0DF9121
S1130930CF911F910F91FF90EF90DF90CF9008958A
S11309402091290130912A012617370748F06115B3
S1130950710539F42091E8002E772093E80001C056
S1130960B90140E061157105A9F12091220122230A
S113097009F443C0253009F442C02091E80023FD66
S113098040C02091E80022FD32C02091E80020FF01
S1130990E9CF4091F3002091F20030E0342BFC01C8
S11309A0CF016115710559F02830310540F481916A
S11309B08093F100615071092F5F3F4FF1CF41E007
S11309C02830310509F040E02091E8002E7720938B
S11309D0E800C8CF4111C9CF0AC080912201882301
S11309E061F0853061F08091E80083FD0AC0809158
S11309F0E80082FFF2CF80E0089582E0089583E06A
S1130A00089581E008956115710529F42091E800A5
S1130A102B772093E800FC016115710541F1809169
S1130A202201882361F1853061F18091E80083FD22
S1130A3024C08091E80082FFEFCF2091F3008091E1
S1130A40F20090E0922B892B31F08091F100819398
S1130A506150710991F78091E8008B778093E800E9
S1130A60DBCF80912201882351F0853051F08091B1
S1130A70E80080FFF6CF80E0089581E0089582E0E9
S1130A80089583E008952091290130912A012617C1
S1130A90370748F06115710539F42091E8002E7785
S1130AA02093E80001C0B901FC0120E06115710543
S1130AB091F180912201882309F440C0853009F422
S1130AC03FC08091E80083FD3DC08091E80082FD35
S1130AD02FC08091E80080FFE9CF2091F30080913E
S1130AE0F20090E0922B6115710559F08830910560
S1130AF040F424912093F1003196615071090196DC
S1130B00F2CF21E0089709F020E08091E8008E7789
S1130B108093E800CBCF2111CCCF0AC08091220171
S1130B20882361F0853061F08091E80083FD0AC07C
S1130B308091E80082FFF2CF80E0089582E008957A
S1130B4083E0089581E00895982F973058F59093A5
S1130B50E900981739F07091EC002091ED00509164
S1130B60F00003C0242F762F50E021FF19C03091EC
S1130B70EB003E7F3093EB003091ED003D7F3093EE
S1130B80ED003091EB0031603093EB007093EC009A
S1130B902093ED005093F0002091EE0027FF07C052
S1130BA09F5FD3CF8F708093E90081E0089580E048
S1130BB00895EF92FF920F931F93CF93DF93E62E46
S1130BC0EC018C010C5F1F4FF12CFE1499F158813C
S1130BD0552359F1F801208169817A8131979081F7
S1130BE0852F8F70873010F080E025C0223010F4FC
S1130BF042E001C046E0E8E0F0E020E0E617F70755
S1130C0020F42F5FEE0FFF1FF9CF2295207F422B98
S1130C10F0E49F9F90011124551F5527551F652F00
S1130C20622B0E94A4058823F9F2F39425960B5FA6
S1130C301F4FCBCF81E0DF91CF911F910F91FF9098
S1130C40EF9008958091230187FF11C08091E800FF
S1130C5082FD05C0809122018111F8CF11C08091DD
S1130C60E8008B770BC080912201882349F08091A2
S1130C70E80080FFF8CF8091E8008E778093E80049
S1130C8008952091E4003091E50095E64091EC0050
S1130C90842F817040FF22C08091E80080FD1CC039
S1130CA080912201882391F0853091F08091EB00AE
S1130CB085FD10C04091E4005091E50042175307B0
S1130CC029F39A01915011F784E0089582E0089580
S1130CD083E0089581E0089580E008954091E8005C
S1130CE042FFDECF08950F931F93CF93DF930E94AB
S1130CF0C7060E94CF06C8EDD0E088818F7788832D
S1130D0088818068888388818F7D888319BC10924C
S1130D10220110921E011092200110921F0100EE78
S1130D2010E0F80180818B7F8083888181608883D3
S1130D3042E060E080E00E94A405E1EEF0E0808102
S1130D408E7F8083E2EEF0E0808181608083808109
S1130D5088608083F80180818E7F808388818061B0
S1130D608883DF91CF911F910F910895E8EDF0E012
S1130D7080818F7E8083E7EDF0E0808181608083D5
S1130D8084E082BF81E0809321010C947306E8ED36
S1130D90F0E080818E7F80831092E20008951092AB
S1130DA0DA001092E10008951F920F920FB60F928D
S1130DB011242F933F934F935F936F937F938F935C
S1130DC09F93AF93BF93EF93FF938091E10082FFD2
S1130DD00BC08091E20082FF07C08091E1008B7F0D
S1130DE08093E1000E94EF018091DA0080FF1FC030
S1130DF08091D80080FF1BC08091DA008E7F8093A1
S1130E00DA008091D90080FF0DC080E189BD82E1C4
S1130E1089BD09B400FEFDCF81E0809322010E94C8
S1130E20D50105C019BC109222010E94D8018091FD
S1130E30E10080FF19C08091E20080FF15C080911D
S1130E40E2008E7F8093E2008091E20080618093D3
S1130E50E2008091D80080628093D80019BC85E0BC
S1130E60809322010E94F2088091E10084FF30C047
S1130E708091E20084FF2CC080E189BD82E189BDBC
S1130E8009B400FEFDCF8091D8008F7D8093D800F7
S1130E908091E1008F7E8093E1008091E2008F7E5B
S1130EA08093E2008091E20081608093E20080916F
S1130EB01E01882311F084E007C08091E30087FDC0
S1130EC002C081E001C083E0809322010E94F20805
S1130ED08091E10083FF24C08091E20083FF20C061
S1130EE08091E100877F8093E10082E0809322017A
S1130EF010921E018091E1008E7F8093E100809129
S1130F00E2008E7F8093E2008091E2008061809312
S1130F10E20042E060E080E00E94A4050E94F20842
S1130F20FF91EF91BF91AF919F918F917F916F91BD
S1130F305F914F913F912F910F900FBE0F901F9093
S1130F4018951F93CF93DF93CDB7DEB7AA970FB64B
S1130F50F894DEBF0FBECDBFE3E2F1E088E08E0F70
S1130F609091F10091938E13FBCF0E94EB0180913D
S1130F70E80083FF1FC18091230190912401492F30
S1130F8050E04A30510508F015C1FA01EA5AFF4F02
S1130F900C940E09803881F0823809F00BC18091DD
S1130FA027018F708093E9008091EB0085FB8827EF
S1130FB080F91092E90006C080911F0190912001F0
S1130FC0911182609091E800977F9093E80080935C
S1130FD0F1001092F100C8C0282F2D7F09F0EAC05B
S1130FE0882319F0823061F0E5C0809125018130B9
S1130FF009F0E0C0933009F080E0809320012BC019
S113100080912501811127C0809127018F7009F4F7
S1131010D1C08093E9002091EB0020FF1CC09330E5
S113102021F48091EB00806214C09091EB009061F8
S11310309093EB0021E030E0A90102C0440F551F5A
S11310408A95E2F74093EA001092EA008091EB005F
S113105088608093EB001092E9008091E800877F1C
S113106086C08111A7C0109125011F778091E300EC
S11310708078812B8093E3008091E800877F8093C0
S1131080E8000E9422068091E80080FFFCCF809156
S1131090E30080688093E300111102C082E001C084
S11310A083E08093220186C08058823008F082C099
S11310B080912501909126018C3D53E0950779F5A7
S11310C083E08A838AE289834FB7F894DE0113961A
S11310D020E03EE051E2E32FF0E050935700E4912A
S11310E020FF03C0E295EF703F5FEF708E2F90E01A
S11310F0EA3010F0C79601C0C0968D939D932F5F80
S1131100243149F74FBF8091E800877F8093E8003E
S11311106AE270E0CE0101960E94A00414C0AE0100
S11311204F5F5F4F609127010E946501BC01892BCD
S113113009F440C09091E800977F9093E80089817A
S11311409A810E9443058091E8008B778093E800A0
S113115031C0803879F58091E800877F8093E8007A
S113116080911E018093F1008091E8008E77809336
S1131170E8000E9422061EC081111CC09091250126
S11311809230C0F48091E800877F8093E8009093C8
S11311901E010E94220680911E01811106C08091C9
S11311A0E30087FD02C081E001C084E08093220156
S11311B00E94DB018091E80083FF0AC08091E8006F
S11311C0877F8093E8008091EB0080628093EB003E
S11311D0AA960FB6F894DEBF0FBECDBFDF91CF91B4
S11311E01F9108950895CF93809122018823A1F03F
S11311F0C091E900CF709091EC00892F817090FD2F
S113120080E8C82B1092E9008091E80083FD0E94D9
S1131210A107CF70C093E900CF910895EE0FFF1F8F
S11312200590F491E02D0994FB01DC0104C08D913B
S11312300190801921F441505040C8F7881B990B44
S11312400895FB01DC0102C001900D924150504011
S1131250D8F70895DC0101C06D9341505040E0F788
S10912600895F894FFCF8D
S113126600810800000110010E00000000000000CB
S9030000FC
